{
  "address": "0x5FbDB2315678afecb367f032d93F642f64180aa3",
  "abi": [
    {
      "inputs": [],
      "name": "ABSTAIN",
      "outputs": [
        {
          "internalType": "uint8",
          "name": "",
          "type": "uint8"
        }
      ],
      "stateMutability": "view",
      "type": "function"
    },
    {
      "inputs": [],
      "name": "ALLOW",
      "outputs": [
        {
          "internalType": "uint8",
          "name": "",
          "type": "uint8"
        }
      ],
      "stateMutability": "view",
      "type": "function"
    },
    {
      "inputs": [],
      "name": "DENY",
      "outputs": [
        {
          "internalType": "uint8",
          "name": "",
          "type": "uint8"
        }
      ],
      "stateMutability": "view",
      "type": "function"
    }
  ],
  "transactionHash": "0x44c3325ca400fdd7da09852dc397355aa2ef22f50cf272bba06631789ffe5db6",
  "args": [],
  "numDeployments": 1,
  "solcInputHash": "2f97b93bf4165d4a8a2b06a3e45531a6",
  "bytecode": "0x610112610053600b82828239805160001a607314610046577f4e487b7100000000000000000000000000000000000000000000000000000000600052600060045260246000fd5b30600052607381538281f3fe730000000000000000000000000000000000000000301460806040526004361060475760003560e01c80630b5dfc3914604c578063463ea0c1146066578063a1731a2b146080575b600080fd5b6052609a565b604051605d919060c3565b60405180910390f35b606c609f565b6040516077919060c3565b60405180910390f35b608660a4565b6040516091919060c3565b60405180910390f35b600181565b600281565b600081565b600060ff82169050919050565b60bd8160a9565b82525050565b600060208201905060d6600083018460b6565b9291505056fea2646970667358221220f23f0381a47d8bb2f602520dff67a9919dc81f5ef2e17b3b3e40c30556a0e22964736f6c63430008170033",
  "devdoc": {
    "kind": "dev",
    "methods": {},
    "title": "Access Permission Library",
    "version": 1
  },
  "userdoc": {
    "kind": "user",
    "methods": {},
    "notice": "Library for IPAccount access control permissions.         These permissions are used by the AccessController.",
    "version": 1
  },
  "storageLayout": {
    "storage": [],
    "types": null
  }
}